{
  "transactions": [
    {
      "hash": "0xa7b8f9f63d58da47b7f9cede3db066e655c227b29e4989a5f958cf353ab7b965",
      "transactionType": "CREATE",
      "contractName": "SwapGuard",
      "contractAddress": "0x5fbdb2315678afecb367f032d93f642f64180aa3",
      "function": null,
      "arguments": [
        "5000000000000000000"
      ],
      "transaction": {
        "from": "0xf39fd6e51aad88f6f4ce6ab8827279cfffb92266",
        "gas": "0x85645",
        "value": "0x0",
        "input": "0x608060405234801561000f575f80fd5b5060405161063a38038061063a83398101604081905261002e91610047565b5f80546001600160a01b0319163317905560035561005e565b5f60208284031215610057575f80fd5b5051919050565b6105cf8061006b5f395ff3fe608060405234801561000f575f80fd5b5060043610610090575f3560e01c80638da5cb5b116100635780638da5cb5b146101075780639984f30d14610119578063a07045f91461012c578063c646aee214610143578063e744092e14610175575f80fd5b8063011e11671461009457806339a5b0cd146100cc578063708af86b146100e15780638aaa2284146100f4575b5f80fd5b6100af73eeeeeeeeeeeeeeeeeeeeeeeeeeeeeeeeeeeeeeee81565b6040516001600160a01b0390911681526020015b60405180910390f35b6100df6100da3660046104be565b610197565b005b6100df6100ef3660046104f7565b610228565b6100df6101023660046104be565b6103b5565b5f546100af906001600160a01b031681565b6100df61012736600461053f565b610435565b61013560035481565b6040519081526020016100c3565b610165610151366004610556565b60026020525f908152604090205460ff1681565b60405190151581526020016100c3565b610165610183366004610556565b60016020525f908152604090205460ff1681565b5f546001600160a01b031633146101c95760405162461bcd60e51b81526004016101c090610576565b60405180910390fd5b6001600160a01b0382165f81815260026020908152604091829020805460ff191685151590811790915591519182527f45c10d9ef89aef5e9ff4cc0f5cd4020b4fd814b606e3263e5d314016cfc5a55391015b60405180910390a25050565b6001600160a01b0384165f9081526001602052604090205460ff1661028f5760405162461bcd60e51b815260206004820152601c60248201527f522d30313a2073656c6c20746f6b656e206e6f7420616c6c6f7765640000000060448201526064016101c0565b6001600160a01b0383165f9081526001602052604090205460ff166102f65760405162461bcd60e51b815260206004820152601b60248201527f522d30313a2062757920746f6b656e206e6f7420616c6c6f776564000000000060448201526064016101c0565b6001600160a01b0382165f9081526002602052604090205460ff1661035d5760405162461bcd60e51b815260206004820152601860248201527f522d30323a20726f75746572206e6f7420616c6c6f776564000000000000000060448201526064016101c0565b6003548111156103af5760405162461bcd60e51b815260206004820152601760248201527f522d30343a2076616c756520657863656564732063617000000000000000000060448201526064016101c0565b50505050565b5f546001600160a01b031633146103de5760405162461bcd60e51b81526004016101c090610576565b6001600160a01b0382165f81815260016020908152604091829020805460ff191685151590811790915591519182527f1da521c13439ac6ab125c52e0da7dd7de929f09e58aa0f89ebe3dbb12e63a52b910161021c565b5f546001600160a01b0316331461045e5760405162461bcd60e51b81526004016101c090610576565b600380549082905560408051828152602081018490527f70fa390ef18c5b85fdf4ab5c2ddda266d6dd71eb4e960ac711559ec1c0a44484910160405180910390a15050565b80356001600160a01b03811681146104b9575f80fd5b919050565b5f80604083850312156104cf575f80fd5b6104d8836104a3565b9150602083013580151581146104ec575f80fd5b809150509250929050565b5f805f806080858703121561050a575f80fd5b610513856104a3565b9350610521602086016104a3565b925061052f604086016104a3565b9396929550929360600135925050565b5f6020828403121561054f575f80fd5b5035919050565b5f60208284031215610566575f80fd5b61056f826104a3565b9392505050565b6020808252600990820152683737ba1037bbb732b960b91b60408201526060019056fea2646970667358221220b9406fa235f97b7684b3eff209d98f9b3bd70147c31869d2ea5cba0b4d40f3be64736f6c634300081400330000000000000000000000000000000000000000000000004563918244f40000",
        "nonce": "0x0",
        "chainId": "0x7a69"
      },
      "additionalContracts": [],
      "isFixedGasLimit": false
    },
    {
      "hash": "0xd1e6c6f68885cd9ec388b8c67ffaa88c75d9ea07b2908482db51f843bbf11d8b",
      "transactionType": "CALL",
      "contractName": "SwapGuard",
      "contractAddress": "0x5fbdb2315678afecb367f032d93f642f64180aa3",
      "function": "setAllowedToken(address,bool)",
      "arguments": [
        "0xEeeeeEeeeEeEeeEeEeEeeEEEeeeeEeeeeeeeEEeE",
        "true"
      ],
      "transaction": {
        "from": "0xf39fd6e51aad88f6f4ce6ab8827279cfffb92266",
        "to": "0x5fbdb2315678afecb367f032d93f642f64180aa3",
        "gas": "0x10202",
        "value": "0x0",
        "input": "0x8aaa2284000000000000000000000000eeeeeeeeeeeeeeeeeeeeeeeeeeeeeeeeeeeeeeee0000000000000000000000000000000000000000000000000000000000000001",
        "nonce": "0x1",
        "chainId": "0x7a69"
      },
      "additionalContracts": [],
      "isFixedGasLimit": false
    },
    {
      "hash": "0xe5690b30e4ec449efedd0d7598364d0a4bc4f73c5a15d51a834adf7ed6372830",
      "transactionType": "CALL",
      "contractName": "SwapGuard",
      "contractAddress": "0x5fbdb2315678afecb367f032d93f642f64180aa3",
      "function": "setAllowedToken(address,bool)",
      "arguments": [
        "0xC02aaA39b223FE8D0A0e5C4F27eAD9083C756Cc2",
        "true"
      ],
      "transaction": {
        "from": "0xf39fd6e51aad88f6f4ce6ab8827279cfffb92266",
        "to": "0x5fbdb2315678afecb367f032d93f642f64180aa3",
        "gas": "0x10202",
        "value": "0x0",
        "input": "0x8aaa2284000000000000000000000000c02aaa39b223fe8d0a0e5c4f27ead9083c756cc20000000000000000000000000000000000000000000000000000000000000001",
        "nonce": "0x2",
        "chainId": "0x7a69"
      },
      "additionalContracts": [],
      "isFixedGasLimit": false
    },
    {
      "hash": "0xb673d000ae191be3f5754d7d3aeac416f0fbeaf0a6dbd9de96eda2cc48050e98",
      "transactionType": "CALL",
      "contractName": "SwapGuard",
      "contractAddress": "0x5fbdb2315678afecb367f032d93f642f64180aa3",
      "function": "setAllowedToken(address,bool)",
      "arguments": [
        "0xA0b86991c6218b36c1d19D4a2e9Eb0cE3606eB48",
        "true"
      ],
      "transaction": {
        "from": "0xf39fd6e51aad88f6f4ce6ab8827279cfffb92266",
        "to": "0x5fbdb2315678afecb367f032d93f642f64180aa3",
        "gas": "0x10202",
        "value": "0x0",
        "input": "0x8aaa2284000000000000000000000000a0b86991c6218b36c1d19d4a2e9eb0ce3606eb480000000000000000000000000000000000000000000000000000000000000001",
        "nonce": "0x3",
        "chainId": "0x7a69"
      },
      "additionalContracts": [],
      "isFixedGasLimit": false
    },
    {
      "hash": "0x99d42c7a6932cd6aa1ec4bda8e2e58c865f516d8623925a7102be70a35b27466",
      "transactionType": "CALL",
      "contractName": "SwapGuard",
      "contractAddress": "0x5fbdb2315678afecb367f032d93f642f64180aa3",
      "function": "setAllowedToken(address,bool)",
      "arguments": [
        "0xdAC17F958D2ee523a2206206994597C13D831ec7",
        "true"
      ],
      "transaction": {
        "from": "0xf39fd6e51aad88f6f4ce6ab8827279cfffb92266",
        "to": "0x5fbdb2315678afecb367f032d93f642f64180aa3",
        "gas": "0x10202",
        "value": "0x0",
        "input": "0x8aaa2284000000000000000000000000dac17f958d2ee523a2206206994597c13d831ec70000000000000000000000000000000000000000000000000000000000000001",
        "nonce": "0x4",
        "chainId": "0x7a69"
      },
      "additionalContracts": [],
      "isFixedGasLimit": false
    },
    {
      "hash": "0xc32a0719773b9f4fbbb40764a58b2d56280b0a5bfd993d5f5e572e37b39df023",
      "transactionType": "CALL",
      "contractName": "SwapGuard",
      "contractAddress": "0x5fbdb2315678afecb367f032d93f642f64180aa3",
      "function": "setAllowedToken(address,bool)",
      "arguments": [
        "0x6B175474E89094C44Da98b954EedeAC495271d0F",
        "true"
      ],
      "transaction": {
        "from": "0xf39fd6e51aad88f6f4ce6ab8827279cfffb92266",
        "to": "0x5fbdb2315678afecb367f032d93f642f64180aa3",
        "gas": "0x10202",
        "value": "0x0",
        "input": "0x8aaa22840000000000000000000000006b175474e89094c44da98b954eedeac495271d0f0000000000000000000000000000000000000000000000000000000000000001",
        "nonce": "0x5",
        "chainId": "0x7a69"
      },
      "additionalContracts": [],
      "isFixedGasLimit": false
    },
    {
      "hash": "0x6ede3f949464c57fe1a4f762bc3a6f74db43d172858c257061b1e445b74e5d14",
      "transactionType": "CALL",
      "contractName": "SwapGuard",
      "contractAddress": "0x5fbdb2315678afecb367f032d93f642f64180aa3",
      "function": "setAllowedRouter(address,bool)",
      "arguments": [
        "0x1111111254fb6c44bAC0beD2854e76F90643097d",
        "true"
      ],
      "transaction": {
        "from": "0xf39fd6e51aad88f6f4ce6ab8827279cfffb92266",
        "to": "0x5fbdb2315678afecb367f032d93f642f64180aa3",
        "gas": "0x101b7",
        "value": "0x0",
        "input": "0x39a5b0cd0000000000000000000000001111111254fb6c44bac0bed2854e76f90643097d0000000000000000000000000000000000000000000000000000000000000001",
        "nonce": "0x6",
        "chainId": "0x7a69"
      },
      "additionalContracts": [],
      "isFixedGasLimit": false
    },
    {
      "hash": "0xf67e772d9884d1e8cb46d0ad57537371261997201264f0c55a58a523b5498a37",
      "transactionType": "CALL",
      "contractName": "SwapGuard",
      "contractAddress": "0x5fbdb2315678afecb367f032d93f642f64180aa3",
      "function": "setAllowedRouter(address,bool)",
      "arguments": [
        "0x1111111254EEB25477B68fb85Ed929f73A960582",
        "true"
      ],
      "transaction": {
        "from": "0xf39fd6e51aad88f6f4ce6ab8827279cfffb92266",
        "to": "0x5fbdb2315678afecb367f032d93f642f64180aa3",
        "gas": "0x101b7",
        "value": "0x0",
        "input": "0x39a5b0cd0000000000000000000000001111111254eeb25477b68fb85ed929f73a9605820000000000000000000000000000000000000000000000000000000000000001",
        "nonce": "0x7",
        "chainId": "0x7a69"
      },
      "additionalContracts": [],
      "isFixedGasLimit": false
    },
    {
      "hash": "0xed82934ff2200a19f38c2338ddb96251a35a59798b0e6f52b14112f0716e2a24",
      "transactionType": "CALL",
      "contractName": "SwapGuard",
      "contractAddress": "0x5fbdb2315678afecb367f032d93f642f64180aa3",
      "function": "setAllowedRouter(address,bool)",
      "arguments": [
        "0xDef1C0ded9bec7F1a1670819833240f027b25EfF",
        "true"
      ],
      "transaction": {
        "from": "0xf39fd6e51aad88f6f4ce6ab8827279cfffb92266",
        "to": "0x5fbdb2315678afecb367f032d93f642f64180aa3",
        "gas": "0x101b7",
        "value": "0x0",
        "input": "0x39a5b0cd000000000000000000000000def1c0ded9bec7f1a1670819833240f027b25eff0000000000000000000000000000000000000000000000000000000000000001",
        "nonce": "0x8",
        "chainId": "0x7a69"
      },
      "additionalContracts": [],
      "isFixedGasLimit": false
    }
  ],
  "receipts": [
    {
      "status": "0x1",
      "cumulativeGasUsed": "0x669bf",
      "logs": [],
      "logsBloom": "0x00000000000000000000000000000000000000000000000000000000000000000000000000000000000000000000000000000000000000000000000000000000000000000000000000000000000000000000000000000000000000000000000000000000000000000000000000000000000000000000000000000000000000000000000000000000000000000000000000000000000000000000000000000000000000000000000000000000000000000000000000000000000000000000000000000000000000000000000000000000000000000000000000000000000000000000000000000000000000000000000000000000000000000000000000000000",
      "type": "0x2",
      "transactionHash": "0xa7b8f9f63d58da47b7f9cede3db066e655c227b29e4989a5f958cf353ab7b965",
      "transactionIndex": "0x0",
      "blockHash": "0xdcc55a82ee5e70b30f443347a5f1a7819d7599baa2eb938b09b9552385b9f607",
      "blockNumber": "0x1",
      "gasUsed": "0x669bf",
      "effectiveGasPrice": "0x3b9aca01",
      "blobGasPrice": "0x1",
      "from": "0xf39fd6e51aad88f6f4ce6ab8827279cfffb92266",
      "to": null,
      "contractAddress": "0x5fbdb2315678afecb367f032d93f642f64180aa3"
    },
    {
      "status": "0x1",
      "cumulativeGasUsed": "0xbacc",
      "logs": [
        {
          "address": "0x5fbdb2315678afecb367f032d93f642f64180aa3",
          "topics": [
            "0x1da521c13439ac6ab125c52e0da7dd7de929f09e58aa0f89ebe3dbb12e63a52b",
            "0x000000000000000000000000eeeeeeeeeeeeeeeeeeeeeeeeeeeeeeeeeeeeeeee"
          ],
          "data": "0x0000000000000000000000000000000000000000000000000000000000000001",
          "blockHash": "0x551179e39ec01ba8226b95c505bed07c16456ceccc749324a94407bbda737e81",
          "blockNumber": "0x2",
          "blockTimestamp": "0x69b42be1",
          "transactionHash": "0xd1e6c6f68885cd9ec388b8c67ffaa88c75d9ea07b2908482db51f843bbf11d8b",
          "transactionIndex": "0x0",
          "logIndex": "0x0",
          "removed": false
        }
      ],
      "logsBloom": "0x00000000000000000000000000000000000000000000000000000000000000000000000000000000000000000000000000000000000000000010000000000000000000000000000000000000000000000004000000000000000000000000000000000040000000000000000000000000000000000000000000000000000000000000000000000000000000000000000000000000000000000000000200000000000000000000000000100000000000000000000000000000000000200000000000000040000000000000000000100000000000000000000000000000000000000000000000000000000000000000000000000000000000800000000000000000",
      "type": "0x2",
      "transactionHash": "0xd1e6c6f68885cd9ec388b8c67ffaa88c75d9ea07b2908482db51f843bbf11d8b",
      "transactionIndex": "0x0",
      "blockHash": "0x551179e39ec01ba8226b95c505bed07c16456ceccc749324a94407bbda737e81",
      "blockNumber": "0x2",
      "gasUsed": "0xbacc",
      "effectiveGasPrice": "0x345ce1f9",
      "blobGasPrice": "0x1",
      "from": "0xf39fd6e51aad88f6f4ce6ab8827279cfffb92266",
      "to": "0x5fbdb2315678afecb367f032d93f642f64180aa3",
      "contractAddress": null
    },
    {
      "status": "0x1",
      "cumulativeGasUsed": "0x17598",
      "logs": [
        {
          "address": "0x5fbdb2315678afecb367f032d93f642f64180aa3",
          "topics": [
            "0x1da521c13439ac6ab125c52e0da7dd7de929f09e58aa0f89ebe3dbb12e63a52b",
            "0x000000000000000000000000c02aaa39b223fe8d0a0e5c4f27ead9083c756cc2"
          ],
          "data": "0x0000000000000000000000000000000000000000000000000000000000000001",
          "blockHash": "0x551179e39ec01ba8226b95c505bed07c16456ceccc749324a94407bbda737e81",
          "blockNumber": "0x2",
          "blockTimestamp": "0x69b42be1",
          "transactionHash": "0xb673d000ae191be3f5754d7d3aeac416f0fbeaf0a6dbd9de96eda2cc48050e98",
          "transactionIndex": "0x1",
          "logIndex": "0x1",
          "removed": false
        }
      ],
      "logsBloom": "0x00000000000000000000000000000000000000000000000000000000000000000000000000000000000000000000000000000000000000000000000000000000000000000000000000000000000000800004000000000000000000000000000000000040000000000000000000000000000000000000000000000000000000000000000000000000000000400000000000000000000000000000000200000000000000000000000000100000000000000000000000000000000000000000000000000040000000000000000000080000000000000000000000000000000000000000000000000000000000000000000000000000000000800000000000000000",
      "type": "0x2",
      "transactionHash": "0xb673d000ae191be3f5754d7d3aeac416f0fbeaf0a6dbd9de96eda2cc48050e98",
      "transactionIndex": "0x1",
      "blockHash": "0x551179e39ec01ba8226b95c505bed07c16456ceccc749324a94407bbda737e81",
      "blockNumber": "0x2",
      "gasUsed": "0xbacc",
      "effectiveGasPrice": "0x345ce1f9",
      "blobGasPrice": "0x1",
      "from": "0xf39fd6e51aad88f6f4ce6ab8827279cfffb92266",
      "to": "0x5fbdb2315678afecb367f032d93f642f64180aa3",
      "contractAddress": null
    },
    {
      "status": "0x1",
      "cumulativeGasUsed": "0xbacc",
      "logs": [
        {
          "address": "0x5fbdb2315678afecb367f032d93f642f64180aa3",
          "topics": [
            "0x1da521c13439ac6ab125c52e0da7dd7de929f09e58aa0f89ebe3dbb12e63a52b",
            "0x000000000000000000000000a0b86991c6218b36c1d19d4a2e9eb0ce3606eb48"
          ],
          "data": "0x0000000000000000000000000000000000000000000000000000000000000001",
          "blockHash": "0xcf3c32fbcdf26221091b830df74145bec97f731ee58323ee3531f5baa9de5f3d",
          "blockNumber": "0x3",
          "blockTimestamp": "0x69b42be1",
          "transactionHash": "0xc32a0719773b9f4fbbb40764a58b2d56280b0a5bfd993d5f5e572e37b39df023",
          "transactionIndex": "0x0",
          "logIndex": "0x0",
          "removed": false
        }
      ],
      "logsBloom": "0x00000000000000000000000000000000000000000000000000000000000000000000000000000000000002000000000000000000000000000000000000000000000000000000000000000000000000000004000000000000000000000000000000000040000000000000000000000000000000000000000000000000000000000000000000000000000000000000000200000000000000000000000200000000000000000000000000100000000000000000000000000000000000000000000000000040000000000000000000000000000000000000000000000000000000000000000000000000000000000000000004000000000000800000000000000000",
      "type": "0x2",
      "transactionHash": "0xc32a0719773b9f4fbbb40764a58b2d56280b0a5bfd993d5f5e572e37b39df023",
      "transactionIndex": "0x0",
      "blockHash": "0xcf3c32fbcdf26221091b830df74145bec97f731ee58323ee3531f5baa9de5f3d",
      "blockNumber": "0x3",
      "gasUsed": "0xbacc",
      "effectiveGasPrice": "0x2ddbf4c1",
      "blobGasPrice": "0x1",
      "from": "0xf39fd6e51aad88f6f4ce6ab8827279cfffb92266",
      "to": "0x5fbdb2315678afecb367f032d93f642f64180aa3",
      "contractAddress": null
    },
    {
      "status": "0x1",
      "cumulativeGasUsed": "0x17598",
      "logs": [
        {
          "address": "0x5fbdb2315678afecb367f032d93f642f64180aa3",
          "topics": [
            "0x1da521c13439ac6ab125c52e0da7dd7de929f09e58aa0f89ebe3dbb12e63a52b",
            "0x000000000000000000000000dac17f958d2ee523a2206206994597c13d831ec7"
          ],
          "data": "0x0000000000000000000000000000000000000000000000000000000000000001",
          "blockHash": "0xcf3c32fbcdf26221091b830df74145bec97f731ee58323ee3531f5baa9de5f3d",
          "blockNumber": "0x3",
          "blockTimestamp": "0x69b42be1",
          "transactionHash": "0xf67e772d9884d1e8cb46d0ad57537371261997201264f0c55a58a523b5498a37",
          "transactionIndex": "0x1",
          "logIndex": "0x1",
          "removed": false
        }
      ],
      "logsBloom": "0x00000000000000000000000000000000000000000000000000000000000000000000000000000000000000000000000000000000000000000000000000000000000000000000000000000000000000000004000000000000000000000000000000000040000000000000000000000000000000200000000000000000000000000000000000000000000000000000000000000000000000000000000200000000000000000000000000100000000000000000000000000000000000000000004000000040000000000000000000000000000000020000000000000000000000000000000000000000000000000000000000000000000000800000000000000000",
      "type": "0x2",
      "transactionHash": "0xf67e772d9884d1e8cb46d0ad57537371261997201264f0c55a58a523b5498a37",
      "transactionIndex": "0x1",
      "blockHash": "0xcf3c32fbcdf26221091b830df74145bec97f731ee58323ee3531f5baa9de5f3d",
      "blockNumber": "0x3",
      "gasUsed": "0xbacc",
      "effectiveGasPrice": "0x2ddbf4c1",
      "blobGasPrice": "0x1",
      "from": "0xf39fd6e51aad88f6f4ce6ab8827279cfffb92266",
      "to": "0x5fbdb2315678afecb367f032d93f642f64180aa3",
      "contractAddress": null
    },
    {
      "status": "0x1",
      "cumulativeGasUsed": "0x23064",
      "logs": [
        {
          "address": "0x5fbdb2315678afecb367f032d93f642f64180aa3",
          "topics": [
            "0x1da521c13439ac6ab125c52e0da7dd7de929f09e58aa0f89ebe3dbb12e63a52b",
            "0x0000000000000000000000006b175474e89094c44da98b954eedeac495271d0f"
          ],
          "data": "0x0000000000000000000000000000000000000000000000000000000000000001",
          "blockHash": "0xcf3c32fbcdf26221091b830df74145bec97f731ee58323ee3531f5baa9de5f3d",
          "blockNumber": "0x3",
          "blockTimestamp": "0x69b42be1",
          "transactionHash": "0x6ede3f949464c57fe1a4f762bc3a6f74db43d172858c257061b1e445b74e5d14",
          "transactionIndex": "0x2",
          "logIndex": "0x2",
          "removed": false
        }
      ],
      "logsBloom": "0x00000000000000000000000000000000000000000000000000000000000000000000000000000000000000000000000000000000000000000000000000000000000000000000000000000000000000000004000000000000000000000000000000000040000000000000000000000000000000000000000000000000000000200000000000000000000000000000000000000000000000000000000600000000000000000000000000100000000000000000000000000000000000000000000000000040000000000000000000000000000000000000000000000000000000000000000000000000000000000000000000000000000000900000000000000000",
      "type": "0x2",
      "transactionHash": "0x6ede3f949464c57fe1a4f762bc3a6f74db43d172858c257061b1e445b74e5d14",
      "transactionIndex": "0x2",
      "blockHash": "0xcf3c32fbcdf26221091b830df74145bec97f731ee58323ee3531f5baa9de5f3d",
      "blockNumber": "0x3",
      "gasUsed": "0xbacc",
      "effectiveGasPrice": "0x2ddbf4c1",
      "blobGasPrice": "0x1",
      "from": "0xf39fd6e51aad88f6f4ce6ab8827279cfffb92266",
      "to": "0x5fbdb2315678afecb367f032d93f642f64180aa3",
      "contractAddress": null
    },
    {
      "status": "0x1",
      "cumulativeGasUsed": "0x2eaf9",
      "logs": [
        {
          "address": "0x5fbdb2315678afecb367f032d93f642f64180aa3",
          "topics": [
            "0x45c10d9ef89aef5e9ff4cc0f5cd4020b4fd814b606e3263e5d314016cfc5a553",
            "0x0000000000000000000000001111111254fb6c44bac0bed2854e76f90643097d"
          ],
          "data": "0x0000000000000000000000000000000000000000000000000000000000000001",
          "blockHash": "0xcf3c32fbcdf26221091b830df74145bec97f731ee58323ee3531f5baa9de5f3d",
          "blockNumber": "0x3",
          "blockTimestamp": "0x69b42be1",
          "transactionHash": "0x99d42c7a6932cd6aa1ec4bda8e2e58c865f516d8623925a7102be70a35b27466",
          "transactionIndex": "0x3",
          "logIndex": "0x3",
          "removed": false
        }
      ],
      "logsBloom": "0x00000000000000000000000000000000000000000000000000000000000000000000000000000000000000000000400000000000000000000000000000000008000000000000000000000000000000000000000000000000008000000000000000000040000000000000000000000000000000000000000000000000000000000000010000001000000000000000000000000000000000000000000200000000000000000000000000000000000000000000000000000000000000000000000001000040000000000000000000000000000000000000000000000000000000000000000000000000000000000000000000000000000000000000000000000000",
      "type": "0x2",
      "transactionHash": "0x99d42c7a6932cd6aa1ec4bda8e2e58c865f516d8623925a7102be70a35b27466",
      "transactionIndex": "0x3",
      "blockHash": "0xcf3c32fbcdf26221091b830df74145bec97f731ee58323ee3531f5baa9de5f3d",
      "blockNumber": "0x3",
      "gasUsed": "0xba95",
      "effectiveGasPrice": "0x2ddbf4c1",
      "blobGasPrice": "0x1",
      "from": "0xf39fd6e51aad88f6f4ce6ab8827279cfffb92266",
      "to": "0x5fbdb2315678afecb367f032d93f642f64180aa3",
      "contractAddress": null
    },
    {
      "status": "0x1",
      "cumulativeGasUsed": "0x3a58e",
      "logs": [
        {
          "address": "0x5fbdb2315678afecb367f032d93f642f64180aa3",
          "topics": [
            "0x45c10d9ef89aef5e9ff4cc0f5cd4020b4fd814b606e3263e5d314016cfc5a553",
            "0x0000000000000000000000001111111254eeb25477b68fb85ed929f73a960582"
          ],
          "data": "0x0000000000000000000000000000000000000000000000000000000000000001",
          "blockHash": "0xcf3c32fbcdf26221091b830df74145bec97f731ee58323ee3531f5baa9de5f3d",
          "blockNumber": "0x3",
          "blockTimestamp": "0x69b42be1",
          "transactionHash": "0xe5690b30e4ec449efedd0d7598364d0a4bc4f73c5a15d51a834adf7ed6372830",
          "transactionIndex": "0x4",
          "logIndex": "0x4",
          "removed": false
        }
      ],
      "logsBloom": "0x00000000000000000000000000000000000000000000000000000000000000000000000000000000000000000000400000000000000000000000000000000008000000000000080000000000000000000000000000000000008000000000000000000040000000000000000000000000000000000000000000000000000000000000000000000000000000000000000000000000000000000000000200000000000000000000000000000000000004000000000000000000000000000000000000000040000000000000000000000000000000000000000000000000000000000000000000000000000400000000000000000000000000000000000000000000",
      "type": "0x2",
      "transactionHash": "0xe5690b30e4ec449efedd0d7598364d0a4bc4f73c5a15d51a834adf7ed6372830",
      "transactionIndex": "0x4",
      "blockHash": "0xcf3c32fbcdf26221091b830df74145bec97f731ee58323ee3531f5baa9de5f3d",
      "blockNumber": "0x3",
      "gasUsed": "0xba95",
      "effectiveGasPrice": "0x2ddbf4c1",
      "blobGasPrice": "0x1",
      "from": "0xf39fd6e51aad88f6f4ce6ab8827279cfffb92266",
      "to": "0x5fbdb2315678afecb367f032d93f642f64180aa3",
      "contractAddress": null
    },
    {
      "status": "0x1",
      "cumulativeGasUsed": "0x46023",
      "logs": [
        {
          "address": "0x5fbdb2315678afecb367f032d93f642f64180aa3",
          "topics": [
            "0x45c10d9ef89aef5e9ff4cc0f5cd4020b4fd814b606e3263e5d314016cfc5a553",
            "0x000000000000000000000000def1c0ded9bec7f1a1670819833240f027b25eff"
          ],
          "data": "0x0000000000000000000000000000000000000000000000000000000000000001",
          "blockHash": "0xcf3c32fbcdf26221091b830df74145bec97f731ee58323ee3531f5baa9de5f3d",
          "blockNumber": "0x3",
          "blockTimestamp": "0x69b42be1",
          "transactionHash": "0xed82934ff2200a19f38c2338ddb96251a35a59798b0e6f52b14112f0716e2a24",
          "transactionIndex": "0x5",
          "logIndex": "0x5",
          "removed": false
        }
      ],
      "logsBloom": "0x00000000000000000000000000000000000000000000000000000000000000000000000000000000000000000000400000000000000000000000000000000008000000000000002000000000000000000000000000000000008000000000000000000040000000000000000000000040000000000000000000000000000000000000000000000000000000000000000000000000000000000000000200000000000000000000000000004000000000000000000000000000000000000000000000000040000000000000000000000000000000000000000000000000000000000000000000000000000000000000000000000000000000000000000000000000",
      "type": "0x2",
      "transactionHash": "0xed82934ff2200a19f38c2338ddb96251a35a59798b0e6f52b14112f0716e2a24",
      "transactionIndex": "0x5",
      "blockHash": "0xcf3c32fbcdf26221091b830df74145bec97f731ee58323ee3531f5baa9de5f3d",
      "blockNumber": "0x3",
      "gasUsed": "0xba95",
      "effectiveGasPrice": "0x2ddbf4c1",
      "blobGasPrice": "0x1",
      "from": "0xf39fd6e51aad88f6f4ce6ab8827279cfffb92266",
      "to": "0x5fbdb2315678afecb367f032d93f642f64180aa3",
      "contractAddress": null
    }
  ],
  "libraries": [],
  "pending": [],
  "returns": {},
  "timestamp": 1773415393258,
  "chain": 31337,
  "commit": "8491e36"
}