{
  "transactions": [
    {
      "hash": "0x231778c8b2555e16c57254f19bce888bda3d378d022e9d8446d3a18e59ca8c8d",
      "transactionType": "CREATE",
      "contractName": "SwapGuard",
      "contractAddress": "0x5fbdb2315678afecb367f032d93f642f64180aa3",
      "function": null,
      "arguments": [
        "5000000000000000000"
      ],
      "transaction": {
        "from": "0xf39fd6e51aad88f6f4ce6ab8827279cfffb92266",
        "gas": "0x9d3c6",
        "value": "0x0",
        "input": "0x608060405234801561000f575f80fd5b5060405161073538038061073583398101604081905261002e9161004d565b5f80546001600160a01b031916331790556003556103e8600455610064565b5f6020828403121561005d575f80fd5b5051919050565b6106c4806100715f395ff3fe608060405234801561000f575f80fd5b50600436106100a6575f3560e01c80639984f30d1161006e5780639984f30d1461012f578063a07045f914610142578063c4aa739514610159578063c646aee214610162578063e744092e14610194578063f7115636146101b6575f80fd5b8063011e1167146100aa57806325fc1b3d146100e257806339a5b0cd146100f75780638aaa22841461010a5780638da5cb5b1461011d575b5f80fd5b6100c573eeeeeeeeeeeeeeeeeeeeeeeeeeeeeeeeeeeeeeee81565b6040516001600160a01b0390911681526020015b60405180910390f35b6100f56100f036600461058f565b6101c9565b005b6100f56101053660046105c1565b610240565b6100f56101183660046105c1565b6102c8565b5f546100c5906001600160a01b031681565b6100f561013d36600461058f565b610348565b61014b60035481565b6040519081526020016100d9565b61014b60045481565b6101846101703660046105fa565b60026020525f908152604090205460ff1681565b60405190151581526020016100d9565b6101846101a23660046105fa565b60016020525f908152604090205460ff1681565b6100f56101c436600461061a565b6103af565b5f546001600160a01b031633146101fb5760405162461bcd60e51b81526004016101f29061066b565b60405180910390fd5b600480549082905560408051828152602081018490527ed0adba8f44b48a2e609f42b3a1c04404a6d5bf30c24d7501cc72dd2340695791015b60405180910390a15050565b5f546001600160a01b031633146102695760405162461bcd60e51b81526004016101f29061066b565b6001600160a01b0382165f81815260026020908152604091829020805460ff191685151590811790915591519182527f45c10d9ef89aef5e9ff4cc0f5cd4020b4fd814b606e3263e5d314016cfc5a55391015b60405180910390a25050565b5f546001600160a01b031633146102f15760405162461bcd60e51b81526004016101f29061066b565b6001600160a01b0382165f81815260016020908152604091829020805460ff191685151590811790915591519182527f1da521c13439ac6ab125c52e0da7dd7de929f09e58aa0f89ebe3dbb12e63a52b91016102bc565b5f546001600160a01b031633146103715760405162461bcd60e51b81526004016101f29061066b565b600380549082905560408051828152602081018490527f70fa390ef18c5b85fdf4ab5c2ddda266d6dd71eb4e960ac711559ec1c0a444849101610234565b6001600160a01b0385165f9081526001602052604090205460ff166104165760405162461bcd60e51b815260206004820152601c60248201527f522d30313a2073656c6c20746f6b656e206e6f7420616c6c6f7765640000000060448201526064016101f2565b6001600160a01b0384165f9081526001602052604090205460ff1661047d5760405162461bcd60e51b815260206004820152601b60248201527f522d30313a2062757920746f6b656e206e6f7420616c6c6f776564000000000060448201526064016101f2565b6001600160a01b0383165f9081526002602052604090205460ff166104e45760405162461bcd60e51b815260206004820152601860248201527f522d30323a20726f75746572206e6f7420616c6c6f776564000000000000000060448201526064016101f2565b6004548111156105365760405162461bcd60e51b815260206004820152601a60248201527f522d30333a20736c69707061676520657863656564732063617000000000000060448201526064016101f2565b6003548211156105885760405162461bcd60e51b815260206004820152601760248201527f522d30343a2076616c756520657863656564732063617000000000000000000060448201526064016101f2565b5050505050565b5f6020828403121561059f575f80fd5b5035919050565b80356001600160a01b03811681146105bc575f80fd5b919050565b5f80604083850312156105d2575f80fd5b6105db836105a6565b9150602083013580151581146105ef575f80fd5b809150509250929050565b5f6020828403121561060a575f80fd5b610613826105a6565b9392505050565b5f805f805f60a0868803121561062e575f80fd5b610637866105a6565b9450610645602087016105a6565b9350610653604087016105a6565b94979396509394606081013594506080013592915050565b6020808252600990820152683737ba1037bbb732b960b91b60408201526060019056fea2646970667358221220c7b7e7ebdd0c5160af2bb0e58a3e5c79291b37f4a09218e426c3d3106c370d0564736f6c634300081400330000000000000000000000000000000000000000000000004563918244f40000",
        "nonce": "0x0",
        "chainId": "0x7a69"
      },
      "additionalContracts": [],
      "isFixedGasLimit": false
    },
    {
      "hash": "0x6ede3f949464c57fe1a4f762bc3a6f74db43d172858c257061b1e445b74e5d14",
      "transactionType": "CALL",
      "contractName": "SwapGuard",
      "contractAddress": "0x5fbdb2315678afecb367f032d93f642f64180aa3",
      "function": "setAllowedToken(address,bool)",
      "arguments": [
        "0xEeeeeEeeeEeEeeEeEeEeeEEEeeeeEeeeeeeeEEeE",
        "true"
      ],
      "transaction": {
        "from": "0xf39fd6e51aad88f6f4ce6ab8827279cfffb92266",
        "to": "0x5fbdb2315678afecb367f032d93f642f64180aa3",
        "gas": "0x10202",
        "value": "0x0",
        "input": "0x8aaa2284000000000000000000000000eeeeeeeeeeeeeeeeeeeeeeeeeeeeeeeeeeeeeeee0000000000000000000000000000000000000000000000000000000000000001",
        "nonce": "0x1",
        "chainId": "0x7a69"
      },
      "additionalContracts": [],
      "isFixedGasLimit": false
    },
    {
      "hash": "0xc32a0719773b9f4fbbb40764a58b2d56280b0a5bfd993d5f5e572e37b39df023",
      "transactionType": "CALL",
      "contractName": "SwapGuard",
      "contractAddress": "0x5fbdb2315678afecb367f032d93f642f64180aa3",
      "function": "setAllowedToken(address,bool)",
      "arguments": [
        "0xC02aaA39b223FE8D0A0e5C4F27eAD9083C756Cc2",
        "true"
      ],
      "transaction": {
        "from": "0xf39fd6e51aad88f6f4ce6ab8827279cfffb92266",
        "to": "0x5fbdb2315678afecb367f032d93f642f64180aa3",
        "gas": "0x10202",
        "value": "0x0",
        "input": "0x8aaa2284000000000000000000000000c02aaa39b223fe8d0a0e5c4f27ead9083c756cc20000000000000000000000000000000000000000000000000000000000000001",
        "nonce": "0x2",
        "chainId": "0x7a69"
      },
      "additionalContracts": [],
      "isFixedGasLimit": false
    },
    {
      "hash": "0xd1e6c6f68885cd9ec388b8c67ffaa88c75d9ea07b2908482db51f843bbf11d8b",
      "transactionType": "CALL",
      "contractName": "SwapGuard",
      "contractAddress": "0x5fbdb2315678afecb367f032d93f642f64180aa3",
      "function": "setAllowedToken(address,bool)",
      "arguments": [
        "0xA0b86991c6218b36c1d19D4a2e9Eb0cE3606eB48",
        "true"
      ],
      "transaction": {
        "from": "0xf39fd6e51aad88f6f4ce6ab8827279cfffb92266",
        "to": "0x5fbdb2315678afecb367f032d93f642f64180aa3",
        "gas": "0x10202",
        "value": "0x0",
        "input": "0x8aaa2284000000000000000000000000a0b86991c6218b36c1d19d4a2e9eb0ce3606eb480000000000000000000000000000000000000000000000000000000000000001",
        "nonce": "0x3",
        "chainId": "0x7a69"
      },
      "additionalContracts": [],
      "isFixedGasLimit": false
    },
    {
      "hash": "0xb673d000ae191be3f5754d7d3aeac416f0fbeaf0a6dbd9de96eda2cc48050e98",
      "transactionType": "CALL",
      "contractName": "SwapGuard",
      "contractAddress": "0x5fbdb2315678afecb367f032d93f642f64180aa3",
      "function": "setAllowedToken(address,bool)",
      "arguments": [
        "0xdAC17F958D2ee523a2206206994597C13D831ec7",
        "true"
      ],
      "transaction": {
        "from": "0xf39fd6e51aad88f6f4ce6ab8827279cfffb92266",
        "to": "0x5fbdb2315678afecb367f032d93f642f64180aa3",
        "gas": "0x10202",
        "value": "0x0",
        "input": "0x8aaa2284000000000000000000000000dac17f958d2ee523a2206206994597c13d831ec70000000000000000000000000000000000000000000000000000000000000001",
        "nonce": "0x4",
        "chainId": "0x7a69"
      },
      "additionalContracts": [],
      "isFixedGasLimit": false
    },
    {
      "hash": "0x58e5581164941c9c0d69b2f383c44577161e29908ee68138ef56e63ab0513f0b",
      "transactionType": "CALL",
      "contractName": "SwapGuard",
      "contractAddress": "0x5fbdb2315678afecb367f032d93f642f64180aa3",
      "function": "setAllowedToken(address,bool)",
      "arguments": [
        "0x6B175474E89094C44Da98b954EedeAC495271d0F",
        "true"
      ],
      "transaction": {
        "from": "0xf39fd6e51aad88f6f4ce6ab8827279cfffb92266",
        "to": "0x5fbdb2315678afecb367f032d93f642f64180aa3",
        "gas": "0x10202",
        "value": "0x0",
        "input": "0x8aaa22840000000000000000000000006b175474e89094c44da98b954eedeac495271d0f0000000000000000000000000000000000000000000000000000000000000001",
        "nonce": "0x5",
        "chainId": "0x7a69"
      },
      "additionalContracts": [],
      "isFixedGasLimit": false
    },
    {
      "hash": "0x9e2c55f7424b34b45bc8e7e78faa70802b702f20b20f624dcb38f7cb6f904982",
      "transactionType": "CALL",
      "contractName": "SwapGuard",
      "contractAddress": "0x5fbdb2315678afecb367f032d93f642f64180aa3",
      "function": "setAllowedRouter(address,bool)",
      "arguments": [
        "0x1111111254fb6c44bAC0beD2854e76F90643097d",
        "true"
      ],
      "transaction": {
        "from": "0xf39fd6e51aad88f6f4ce6ab8827279cfffb92266",
        "to": "0x5fbdb2315678afecb367f032d93f642f64180aa3",
        "gas": "0x11100",
        "value": "0x0",
        "input": "0x39a5b0cd0000000000000000000000001111111254fb6c44bac0bed2854e76f90643097d0000000000000000000000000000000000000000000000000000000000000001",
        "nonce": "0x6",
        "chainId": "0x7a69"
      },
      "additionalContracts": [],
      "isFixedGasLimit": false
    },
    {
      "hash": "0xdc0be2a5a6f7bdc0ad229b07b52352bd9d6231de612e1d837764dd91d1993ef0",
      "transactionType": "CALL",
      "contractName": "SwapGuard",
      "contractAddress": "0x5fbdb2315678afecb367f032d93f642f64180aa3",
      "function": "setAllowedRouter(address,bool)",
      "arguments": [
        "0x1111111254EEB25477B68fb85Ed929f73A960582",
        "true"
      ],
      "transaction": {
        "from": "0xf39fd6e51aad88f6f4ce6ab8827279cfffb92266",
        "to": "0x5fbdb2315678afecb367f032d93f642f64180aa3",
        "gas": "0x11100",
        "value": "0x0",
        "input": "0x39a5b0cd0000000000000000000000001111111254eeb25477b68fb85ed929f73a9605820000000000000000000000000000000000000000000000000000000000000001",
        "nonce": "0x7",
        "chainId": "0x7a69"
      },
      "additionalContracts": [],
      "isFixedGasLimit": false
    },
    {
      "hash": "0xf67e772d9884d1e8cb46d0ad57537371261997201264f0c55a58a523b5498a37",
      "transactionType": "CALL",
      "contractName": "SwapGuard",
      "contractAddress": "0x5fbdb2315678afecb367f032d93f642f64180aa3",
      "function": "setAllowedRouter(address,bool)",
      "arguments": [
        "0xDef1C0ded9bec7F1a1670819833240f027b25EfF",
        "true"
      ],
      "transaction": {
        "from": "0xf39fd6e51aad88f6f4ce6ab8827279cfffb92266",
        "to": "0x5fbdb2315678afecb367f032d93f642f64180aa3",
        "gas": "0x11100",
        "value": "0x0",
        "input": "0x39a5b0cd000000000000000000000000def1c0ded9bec7f1a1670819833240f027b25eff0000000000000000000000000000000000000000000000000000000000000001",
        "nonce": "0x8",
        "chainId": "0x7a69"
      },
      "additionalContracts": [],
      "isFixedGasLimit": false
    }
  ],
  "receipts": [
    {
      "status": "0x1",
      "cumulativeGasUsed": "0x78f36",
      "logs": [],
      "logsBloom": "0x00000000000000000000000000000000000000000000000000000000000000000000000000000000000000000000000000000000000000000000000000000000000000000000000000000000000000000000000000000000000000000000000000000000000000000000000000000000000000000000000000000000000000000000000000000000000000000000000000000000000000000000000000000000000000000000000000000000000000000000000000000000000000000000000000000000000000000000000000000000000000000000000000000000000000000000000000000000000000000000000000000000000000000000000000000000",
      "type": "0x2",
      "transactionHash": "0x231778c8b2555e16c57254f19bce888bda3d378d022e9d8446d3a18e59ca8c8d",
      "transactionIndex": "0x0",
      "blockHash": "0xf32f3714dfbc7d6964ce13a2128617c9fcdebda7e2ee916983edea9cabfa84c5",
      "blockNumber": "0x1",
      "gasUsed": "0x78f36",
      "effectiveGasPrice": "0x3b9aca01",
      "blobGasPrice": "0x1",
      "from": "0xf39fd6e51aad88f6f4ce6ab8827279cfffb92266",
      "to": null,
      "contractAddress": "0x5fbdb2315678afecb367f032d93f642f64180aa3"
    },
    {
      "status": "0x1",
      "cumulativeGasUsed": "0xbacc",
      "logs": [
        {
          "address": "0x5fbdb2315678afecb367f032d93f642f64180aa3",
          "topics": [
            "0x1da521c13439ac6ab125c52e0da7dd7de929f09e58aa0f89ebe3dbb12e63a52b",
            "0x000000000000000000000000eeeeeeeeeeeeeeeeeeeeeeeeeeeeeeeeeeeeeeee"
          ],
          "data": "0x0000000000000000000000000000000000000000000000000000000000000001",
          "blockHash": "0xd7b37fee156c39326af16a4d8d222e8421b2e519277458dd7bb0fb4ae5691b43",
          "blockNumber": "0x2",
          "blockTimestamp": "0x69d9e2c6",
          "transactionHash": "0xd1e6c6f68885cd9ec388b8c67ffaa88c75d9ea07b2908482db51f843bbf11d8b",
          "transactionIndex": "0x0",
          "logIndex": "0x0",
          "removed": false
        }
      ],
      "logsBloom": "0x00000000000000000000000000000000000000000000000000000000000000000000000000000000000000000000000000000000000000000010000000000000000000000000000000000000000000000004000000000000000000000000000000000040000000000000000000000000000000000000000000000000000000000000000000000000000000000000000000000000000000000000000200000000000000000000000000100000000000000000000000000000000000200000000000000040000000000000000000100000000000000000000000000000000000000000000000000000000000000000000000000000000000800000000000000000",
      "type": "0x2",
      "transactionHash": "0xd1e6c6f68885cd9ec388b8c67ffaa88c75d9ea07b2908482db51f843bbf11d8b",
      "transactionIndex": "0x0",
      "blockHash": "0xd7b37fee156c39326af16a4d8d222e8421b2e519277458dd7bb0fb4ae5691b43",
      "blockNumber": "0x2",
      "gasUsed": "0xbacc",
      "effectiveGasPrice": "0x34666f83",
      "blobGasPrice": "0x1",
      "from": "0xf39fd6e51aad88f6f4ce6ab8827279cfffb92266",
      "to": "0x5fbdb2315678afecb367f032d93f642f64180aa3",
      "contractAddress": null
    },
    {
      "status": "0x1",
      "cumulativeGasUsed": "0xbacc",
      "logs": [
        {
          "address": "0x5fbdb2315678afecb367f032d93f642f64180aa3",
          "topics": [
            "0x1da521c13439ac6ab125c52e0da7dd7de929f09e58aa0f89ebe3dbb12e63a52b",
            "0x000000000000000000000000c02aaa39b223fe8d0a0e5c4f27ead9083c756cc2"
          ],
          "data": "0x0000000000000000000000000000000000000000000000000000000000000001",
          "blockHash": "0x99dbd0fa8b93aa3a33f84b12676e99401fbf46049814cf8ac6d6efd0157bccc0",
          "blockNumber": "0x3",
          "blockTimestamp": "0x69d9e2c6",
          "transactionHash": "0xb673d000ae191be3f5754d7d3aeac416f0fbeaf0a6dbd9de96eda2cc48050e98",
          "transactionIndex": "0x0",
          "logIndex": "0x0",
          "removed": false
        }
      ],
      "logsBloom": "0x00000000000000000000000000000000000000000000000000000000000000000000000000000000000000000000000000000000000000000000000000000000000000000000000000000000000000800004000000000000000000000000000000000040000000000000000000000000000000000000000000000000000000000000000000000000000000400000000000000000000000000000000200000000000000000000000000100000000000000000000000000000000000000000000000000040000000000000000000080000000000000000000000000000000000000000000000000000000000000000000000000000000000800000000000000000",
      "type": "0x2",
      "transactionHash": "0xb673d000ae191be3f5754d7d3aeac416f0fbeaf0a6dbd9de96eda2cc48050e98",
      "transactionIndex": "0x0",
      "blockHash": "0x99dbd0fa8b93aa3a33f84b12676e99401fbf46049814cf8ac6d6efd0157bccc0",
      "blockNumber": "0x3",
      "gasUsed": "0xbacc",
      "effectiveGasPrice": "0x2ddefa10",
      "blobGasPrice": "0x1",
      "from": "0xf39fd6e51aad88f6f4ce6ab8827279cfffb92266",
      "to": "0x5fbdb2315678afecb367f032d93f642f64180aa3",
      "contractAddress": null
    },
    {
      "status": "0x1",
      "cumulativeGasUsed": "0x17598",
      "logs": [
        {
          "address": "0x5fbdb2315678afecb367f032d93f642f64180aa3",
          "topics": [
            "0x1da521c13439ac6ab125c52e0da7dd7de929f09e58aa0f89ebe3dbb12e63a52b",
            "0x000000000000000000000000a0b86991c6218b36c1d19d4a2e9eb0ce3606eb48"
          ],
          "data": "0x0000000000000000000000000000000000000000000000000000000000000001",
          "blockHash": "0x99dbd0fa8b93aa3a33f84b12676e99401fbf46049814cf8ac6d6efd0157bccc0",
          "blockNumber": "0x3",
          "blockTimestamp": "0x69d9e2c6",
          "transactionHash": "0xc32a0719773b9f4fbbb40764a58b2d56280b0a5bfd993d5f5e572e37b39df023",
          "transactionIndex": "0x1",
          "logIndex": "0x1",
          "removed": false
        }
      ],
      "logsBloom": "0x00000000000000000000000000000000000000000000000000000000000000000000000000000000000002000000000000000000000000000000000000000000000000000000000000000000000000000004000000000000000000000000000000000040000000000000000000000000000000000000000000000000000000000000000000000000000000000000000200000000000000000000000200000000000000000000000000100000000000000000000000000000000000000000000000000040000000000000000000000000000000000000000000000000000000000000000000000000000000000000000004000000000000800000000000000000",
      "type": "0x2",
      "transactionHash": "0xc32a0719773b9f4fbbb40764a58b2d56280b0a5bfd993d5f5e572e37b39df023",
      "transactionIndex": "0x1",
      "blockHash": "0x99dbd0fa8b93aa3a33f84b12676e99401fbf46049814cf8ac6d6efd0157bccc0",
      "blockNumber": "0x3",
      "gasUsed": "0xbacc",
      "effectiveGasPrice": "0x2ddefa10",
      "blobGasPrice": "0x1",
      "from": "0xf39fd6e51aad88f6f4ce6ab8827279cfffb92266",
      "to": "0x5fbdb2315678afecb367f032d93f642f64180aa3",
      "contractAddress": null
    },
    {
      "status": "0x1",
      "cumulativeGasUsed": "0xbacc",
      "logs": [
        {
          "address": "0x5fbdb2315678afecb367f032d93f642f64180aa3",
          "topics": [
            "0x1da521c13439ac6ab125c52e0da7dd7de929f09e58aa0f89ebe3dbb12e63a52b",
            "0x000000000000000000000000dac17f958d2ee523a2206206994597c13d831ec7"
          ],
          "data": "0x0000000000000000000000000000000000000000000000000000000000000001",
          "blockHash": "0x9fc9addddace7bcaa67ce5734c28a0624174c373f8a21f969073ad7056acd873",
          "blockNumber": "0x4",
          "blockTimestamp": "0x69d9e2c6",
          "transactionHash": "0xf67e772d9884d1e8cb46d0ad57537371261997201264f0c55a58a523b5498a37",
          "transactionIndex": "0x0",
          "logIndex": "0x0",
          "removed": false
        }
      ],
      "logsBloom": "0x00000000000000000000000000000000000000000000000000000000000000000000000000000000000000000000000000000000000000000000000000000000000000000000000000000000000000000004000000000000000000000000000000000040000000000000000000000000000000200000000000000000000000000000000000000000000000000000000000000000000000000000000200000000000000000000000000100000000000000000000000000000000000000000004000000040000000000000000000000000000000020000000000000000000000000000000000000000000000000000000000000000000000800000000000000000",
      "type": "0x2",
      "transactionHash": "0xf67e772d9884d1e8cb46d0ad57537371261997201264f0c55a58a523b5498a37",
      "transactionIndex": "0x0",
      "blockHash": "0x9fc9addddace7bcaa67ce5734c28a0624174c373f8a21f969073ad7056acd873",
      "blockNumber": "0x4",
      "gasUsed": "0xbacc",
      "effectiveGasPrice": "0x282c76c0",
      "blobGasPrice": "0x1",
      "from": "0xf39fd6e51aad88f6f4ce6ab8827279cfffb92266",
      "to": "0x5fbdb2315678afecb367f032d93f642f64180aa3",
      "contractAddress": null
    },
    {
      "status": "0x1",
      "cumulativeGasUsed": "0x17598",
      "logs": [
        {
          "address": "0x5fbdb2315678afecb367f032d93f642f64180aa3",
          "topics": [
            "0x1da521c13439ac6ab125c52e0da7dd7de929f09e58aa0f89ebe3dbb12e63a52b",
            "0x0000000000000000000000006b175474e89094c44da98b954eedeac495271d0f"
          ],
          "data": "0x0000000000000000000000000000000000000000000000000000000000000001",
          "blockHash": "0x9fc9addddace7bcaa67ce5734c28a0624174c373f8a21f969073ad7056acd873",
          "blockNumber": "0x4",
          "blockTimestamp": "0x69d9e2c6",
          "transactionHash": "0x6ede3f949464c57fe1a4f762bc3a6f74db43d172858c257061b1e445b74e5d14",
          "transactionIndex": "0x1",
          "logIndex": "0x1",
          "removed": false
        }
      ],
      "logsBloom": "0x00000000000000000000000000000000000000000000000000000000000000000000000000000000000000000000000000000000000000000000000000000000000000000000000000000000000000000004000000000000000000000000000000000040000000000000000000000000000000000000000000000000000000200000000000000000000000000000000000000000000000000000000600000000000000000000000000100000000000000000000000000000000000000000000000000040000000000000000000000000000000000000000000000000000000000000000000000000000000000000000000000000000000900000000000000000",
      "type": "0x2",
      "transactionHash": "0x6ede3f949464c57fe1a4f762bc3a6f74db43d172858c257061b1e445b74e5d14",
      "transactionIndex": "0x1",
      "blockHash": "0x9fc9addddace7bcaa67ce5734c28a0624174c373f8a21f969073ad7056acd873",
      "blockNumber": "0x4",
      "gasUsed": "0xbacc",
      "effectiveGasPrice": "0x282c76c0",
      "blobGasPrice": "0x1",
      "from": "0xf39fd6e51aad88f6f4ce6ab8827279cfffb92266",
      "to": "0x5fbdb2315678afecb367f032d93f642f64180aa3",
      "contractAddress": null
    },
    {
      "status": "0x1",
      "cumulativeGasUsed": "0x23043",
      "logs": [
        {
          "address": "0x5fbdb2315678afecb367f032d93f642f64180aa3",
          "topics": [
            "0x45c10d9ef89aef5e9ff4cc0f5cd4020b4fd814b606e3263e5d314016cfc5a553",
            "0x0000000000000000000000001111111254fb6c44bac0bed2854e76f90643097d"
          ],
          "data": "0x0000000000000000000000000000000000000000000000000000000000000001",
          "blockHash": "0x9fc9addddace7bcaa67ce5734c28a0624174c373f8a21f969073ad7056acd873",
          "blockNumber": "0x4",
          "blockTimestamp": "0x69d9e2c6",
          "transactionHash": "0xdc0be2a5a6f7bdc0ad229b07b52352bd9d6231de612e1d837764dd91d1993ef0",
          "transactionIndex": "0x2",
          "logIndex": "0x2",
          "removed": false
        }
      ],
      "logsBloom": "0x00000000000000000000000000000000000000000000000000000000000000000000000000000000000000000000400000000000000000000000000000000008000000000000000000000000000000000000000000000000008000000000000000000040000000000000000000000000000000000000000000000000000000000000010000001000000000000000000000000000000000000000000200000000000000000000000000000000000000000000000000000000000000000000000001000040000000000000000000000000000000000000000000000000000000000000000000000000000000000000000000000000000000000000000000000000",
      "type": "0x2",
      "transactionHash": "0xdc0be2a5a6f7bdc0ad229b07b52352bd9d6231de612e1d837764dd91d1993ef0",
      "transactionIndex": "0x2",
      "blockHash": "0x9fc9addddace7bcaa67ce5734c28a0624174c373f8a21f969073ad7056acd873",
      "blockNumber": "0x4",
      "gasUsed": "0xbaab",
      "effectiveGasPrice": "0x282c76c0",
      "blobGasPrice": "0x1",
      "from": "0xf39fd6e51aad88f6f4ce6ab8827279cfffb92266",
      "to": "0x5fbdb2315678afecb367f032d93f642f64180aa3",
      "contractAddress": null
    },
    {
      "status": "0x1",
      "cumulativeGasUsed": "0x2eaee",
      "logs": [
        {
          "address": "0x5fbdb2315678afecb367f032d93f642f64180aa3",
          "topics": [
            "0x45c10d9ef89aef5e9ff4cc0f5cd4020b4fd814b606e3263e5d314016cfc5a553",
            "0x0000000000000000000000001111111254eeb25477b68fb85ed929f73a960582"
          ],
          "data": "0x0000000000000000000000000000000000000000000000000000000000000001",
          "blockHash": "0x9fc9addddace7bcaa67ce5734c28a0624174c373f8a21f969073ad7056acd873",
          "blockNumber": "0x4",
          "blockTimestamp": "0x69d9e2c6",
          "transactionHash": "0x9e2c55f7424b34b45bc8e7e78faa70802b702f20b20f624dcb38f7cb6f904982",
          "transactionIndex": "0x3",
          "logIndex": "0x3",
          "removed": false
        }
      ],
      "logsBloom": "0x00000000000000000000000000000000000000000000000000000000000000000000000000000000000000000000400000000000000000000000000000000008000000000000080000000000000000000000000000000000008000000000000000000040000000000000000000000000000000000000000000000000000000000000000000000000000000000000000000000000000000000000000200000000000000000000000000000000000004000000000000000000000000000000000000000040000000000000000000000000000000000000000000000000000000000000000000000000000400000000000000000000000000000000000000000000",
      "type": "0x2",
      "transactionHash": "0x9e2c55f7424b34b45bc8e7e78faa70802b702f20b20f624dcb38f7cb6f904982",
      "transactionIndex": "0x3",
      "blockHash": "0x9fc9addddace7bcaa67ce5734c28a0624174c373f8a21f969073ad7056acd873",
      "blockNumber": "0x4",
      "gasUsed": "0xbaab",
      "effectiveGasPrice": "0x282c76c0",
      "blobGasPrice": "0x1",
      "from": "0xf39fd6e51aad88f6f4ce6ab8827279cfffb92266",
      "to": "0x5fbdb2315678afecb367f032d93f642f64180aa3",
      "contractAddress": null
    },
    {
      "status": "0x1",
      "cumulativeGasUsed": "0x3a599",
      "logs": [
        {
          "address": "0x5fbdb2315678afecb367f032d93f642f64180aa3",
          "topics": [
            "0x45c10d9ef89aef5e9ff4cc0f5cd4020b4fd814b606e3263e5d314016cfc5a553",
            "0x000000000000000000000000def1c0ded9bec7f1a1670819833240f027b25eff"
          ],
          "data": "0x0000000000000000000000000000000000000000000000000000000000000001",
          "blockHash": "0x9fc9addddace7bcaa67ce5734c28a0624174c373f8a21f969073ad7056acd873",
          "blockNumber": "0x4",
          "blockTimestamp": "0x69d9e2c6",
          "transactionHash": "0x58e5581164941c9c0d69b2f383c44577161e29908ee68138ef56e63ab0513f0b",
          "transactionIndex": "0x4",
          "logIndex": "0x4",
          "removed": false
        }
      ],
      "logsBloom": "0x00000000000000000000000000000000000000000000000000000000000000000000000000000000000000000000400000000000000000000000000000000008000000000000002000000000000000000000000000000000008000000000000000000040000000000000000000000040000000000000000000000000000000000000000000000000000000000000000000000000000000000000000200000000000000000000000000004000000000000000000000000000000000000000000000000040000000000000000000000000000000000000000000000000000000000000000000000000000000000000000000000000000000000000000000000000",
      "type": "0x2",
      "transactionHash": "0x58e5581164941c9c0d69b2f383c44577161e29908ee68138ef56e63ab0513f0b",
      "transactionIndex": "0x4",
      "blockHash": "0x9fc9addddace7bcaa67ce5734c28a0624174c373f8a21f969073ad7056acd873",
      "blockNumber": "0x4",
      "gasUsed": "0xbaab",
      "effectiveGasPrice": "0x282c76c0",
      "blobGasPrice": "0x1",
      "from": "0xf39fd6e51aad88f6f4ce6ab8827279cfffb92266",
      "to": "0x5fbdb2315678afecb367f032d93f642f64180aa3",
      "contractAddress": null
    }
  ],
  "libraries": [],
  "pending": [],
  "returns": {},
  "timestamp": 1775887046797,
  "chain": 31337,
  "commit": "b29d593"
}